:020000040800F2
:1000000000C00020A5030008F10D0008F50D000850
:10001000F90D0008FD0D0008010E0008EF1400089E
:10002000EF140008EF140008EF140008EF140008A4
:10003000EF140008EF140008EF1400080115000881
:10004000EF140008EF140008EF140008EF14000884
:10005000EF140008EF140008450E0008650E0008B4
:10006000850E0008A50E0008C50E0008950C0008B6
:10007000AD0C0008C50C0008E10C0008FD0C0008E0
:10008000190D0008350D0008A10A0008EF1400083A
:1000900079200008EF140008EF140008E50E0008AE
:1000A000E5170008091800082D1800086518000851
:1000B000B91800082919000899190008FD1100084D
:1000C000151200080912000821120008EF14000898
:1000D000EF140008E51D0008351E0008851E000805
:1000E000290F0008EF140008EF140008C11A0008D7
:1000F000E51A0008091B0008411B0008F90A00085E
:10010000EF140008EF140008091A0008EF140008A3
:10011000D51E0008251F0008791A00089D1A00083E
:10012000510D0008690D0008810D00089D0D0008A3
:1001300010B5054C237833B9044B13B10448AFF321
:1001400000800123237010BD40100020000000003B
:10015000A0A9020808B5034B1BB103490348AFF33C
:10016000008008BD0000000044100020A0A9020883
:1001700010B512490A2309220968114800F0EAF96A
:1001800010490323022209680F4800F0E3F90F49E0
:100190001B231A2209680E4800F0DCF90D492B23B5
:1001A0002A2209680C4800F0D5F9BDE810400B4937
:1001B00032232C2209680A4800F0CCB984020020BE
:1001C0005C10002088020020741000208C020020A7
:1001D0008C1000207C020020A4100020800200204F
:1001E000BC10002010B5044600F0DCFC034B204698
:1001F000BDE81040197800F03DBC00BF160000209B
:10020000F8B50446056801F0D7F9002223685B01C0
:1002100003F184431A6080232B600123AB622A61BF
:10022000EA606B61637973B1012B0FD001222368FF
:100230005B0103F18443C3F8802223685B0103F16F
:1002400084431A60F8BD4FF400436B644FF6FF72AD
:1002500000252368DA626E1CF7B23946204601F0A9
:10026000C0F9E8B148F6FF72236817F0010F03F1F7
:10027000340343F8252014BF6FF0FF026FF47F4270
:1002800023684FEA650503F1180353F8251001EAC6
:10029000020114BF68224FF4D0420A4343F82520DC
:1002A000042E3546D7D1C1E77047000038B5002588
:1002B000264A274C1368022043F01003136000F015
:1002C00055FE002001F008F865602368182023F42B
:1002D0000023236001F00CF8102001F009F800F071
:1002E00043F8A560102000F0F7FF102001F00EF891
:1002F0000028FAD000F039F8164801F013F8182059
:1003000000F0EAFF182001F001F80028FAD00220DE
:1003100000F0D2FF00214FF0006000F0B1FF0E4866
:1003200001F0E6F800F038F80C4B188800F022FCD9
:100330000B4800F023FC0B4801F018F900F02EF8F0
:1003400000F02DF8FFF7B0FF38BD00BF00200240DD
:10035000001002400C0000203F1901001400002092
:10036000E5010008010200087047002108B50846B1
:1003700001F018F84FF48061012001F013F800211A
:10038000022001F00FF82D2001F01CF8BDE8084014
:100390000021032001F006B800F0FCBD704700F01A
:1003A00038BE000001498D460149084700C00020C1
:1003B000B503000808B5114B1A68114B9A4213D1C6
:1003C000104B114A934213D323F0ACFB0022114689
:1003D000104602F0A1FD0D4B7BB123F03FF952F81E
:1003E000041B043343F8041C09498B42F7D3E7E7A5
:1003F0000022043343F8042CE3E7FEE7700103080E
:100400000000002040100020102600205D36020869
:100410004010002010B50D4B1A680AB90C4A1A603A
:100420001A680C49891A814204DB09494442511A6D
:10043000A14207DA23F00CF90C234FF0FF320360DE
:10044000104610BD10441860FAE700BFD410002019
:1004500010260020E07B0328002070474FF4005353
:1004600000204B607047012070474FF0FF3070470D
:100470000020704710B50C46FFF7FAFF20700120EE
:1004800010BD704770B515460C468E18B44201D1A8
:10049000284670BD14F8010BFFF7F3FFF6E7FEE7FF
:1004A000C38882889B1AC2888188914282BF028950
:1004B00001329B1898B2704710B50369044658681A
:1004C000FFF7EEFF88B123695B689A88196892B2DA
:1004D000885C99881A89C0B292B28A420FBF002202
:1004E0009A88013292B29A8010BD4FF0FF30FBE73C
:1004F00008B503695868FFF7D3FF08BD03695B6857
:100500009988DA8892B28A421FBF9A881B6892B291
:10051000985C14BFC0B24FF0FF3070470269916819
:100520008888CB889BB28342FAD1126813685B0635
:10053000FCD5704713B504698DF8071001220DF141
:100540000701204601F071FB0028F7D0012002B01E
:1005500010BD000030B54FF0000C4FF47A75C0E9C3
:1005600001C5034D016105600275437530BD00BFD3
:1005700018BF02082DE9F74303690446DB68884683
:100580008B42914625D3067D134D3601AB19477D2D
:10059000586818B10022597B01F0DAF8206901F09F
:1005A000F9FA39016A18127BAB19CDF804901B7B5C
:1005B000695800932069AB5901F0B3FB20694246AA
:1005C000002101F0D4FB206903B0BDE8F04301F045
:1005D00007BB03B0BDE8F083E0BB02080022FFF7D1
:1005E000C9BF0000044B02791B789A4202BF034B3B
:1005F0001B681860704700BFF8100020FC10002036
:10060000002310B50446036072B6054B193119700A
:10061000044B1860044800F0A9FF62B6204610BDE4
:10062000F8100020FC100020E505000800220368F7
:100630001B685B0103F184431A6070470122036861
:100640001B685B0103F184431A607047036801393A
:100650001B6889B29962704703681A68D36A9BB2B3
:10066000994228BF19465162704738B561B90122D5
:1006700003681B68996203681B68DA6203681B6879
:10068000DC6AA4B2204638BD48224A434FF6FF71C7
:10069000B2FBF1F1013189B202EB5102B2FBF1F28E
:1006A00094B2FFF7D3FF036892B21B68DA62E9E7FE
:1006B000012203681B685B0103F18443C3F88022B5
:1006C0007047000008B501211048FFF799FF02218B
:1006D0000F48FFF795FF03210E48FFF791FF042114
:1006E0000D48FFF78DFF05210C48FFF789FF062114
:1006F0000B48FFF785FF07210A48FFF781FFBDE898
:10070000084008210848FFF77BBF00BFD810002031
:10071000DC100020E0100020E4100020E810002091
:10072000EC100020F0100020F4100020F8B5064670
:100730000C4615468F18A74206D0336814F8011BE3
:100740001B6830469847F6E72846F8BD70B5054661
:100750000C46084649B124F0A1FA2B68024621460E
:100760002846BDE870409B68184770BD0368C9B251
:100770001B68184703685B68184738B50D210546A4
:10078000FFF7F4FF0A2104462846FFF7EFFF204455
:1007900038BD38B50546FFF7EDFF04462846FFF79C
:1007A000ECFF204438BD2DE970439046994690B047
:1007B00058EA090306469DF8585007D13021FFF743
:1007C000D5FF0125284610B0BDE8708300244046BF
:1007D00049462A46002318F071FD804689460134B7
:1007E0000DEB040303F8012C58EA0903EFD10025AF
:1007F000013C1DF804103046092994BF30313731CF
:1008000049B2FFF7B3FF0544002CF1D1DAE72DE937
:10081000F0411D46002A75F1000307461446069E66
:1008200005DA2D21FFF7A2FF644265EB4505F6B21C
:10083000069622462B463846BDE8F041FFF7B3BF87
:1008400007B5CB1700920A46FFF7E1FF03B05DF84A
:1008500004FB38B50546FFF7F3FF04462846FFF7CB
:100860008CFF204438BD07B5CB1700920A46FFF72E
:10087000CEFF03B05DF804FB37B5CB1700920A46F4
:100880000546FFF7C4FF04462846FFF776FF2044DD
:1008900003B030BD07B5D2B2009200230A46FFF77D
:1008A00082FF03B05DF804FB37B5D2B2009200239B
:1008B0000A460546FFF777FF04462846FFF75DFF27
:1008C000204403B030BD00002DE9F34717461E4613
:1008D0008246002200233846314618F0E3F89DF89E
:1008E00028504FF00104F8B143A3D3E90023384660
:1008F000314618F0CDF800B90446E4B200220023D6
:1009000038463146C4B118F0AFF818B12D21504621
:10091000FFF72CFF04463C495046FFF72BFF0444E9
:10092000204602B0BDE8F08735A3D3E9002338465E
:10093000314618F0A3F8DEE718F096F830B12D2113
:100940005046FFF713FF044606F100464FF000083B
:1009500000202E495FFA88F39D4206D900222C4BD5
:1009600017F03AFF08F10108F4E73A46334617F06A
:1009700053FC06460F4618F0B9FC0A2302460093C2
:1009800080460B4650468946FFF741FF0444002D40
:10099000C6D04046494617F0C7FD02460B463046D2
:1009A000394617F037FC06460F4650461949FFF7FF
:1009B000E1FE0444013DEDB2FF2DB1D0144B002205
:1009C0003046394617F0DEFD0F46064618F074F83B
:1009D0000A22014680465046FFF732FF0444404653
:1009E00017F066FD02460B463046394617F012FCFA
:1009F00006460F46DEE700BF800350726C92DF436D
:100A0000800350726C92DFC334BF02080000E03FE5
:100A1000000024400FDA02089DF800100091FFF753
:100A200053BF000030B504460D4687B0064901A803
:100A300023F020FF22462B4601A90A9823F01AFF33
:100A40000A9807B030BD00BF43BF0208704710B519
:100A50000446007900F074FC2079BDE8104000F0F5
:100A600087BC026841F48011936823F46023194322
:100A700091607047002330B51C461D4603EB4302CE
:100A8000072B01FA02F203F10103D8BF15430A2B29
:100A900044EA0204F2D10368DD6003681C6130BDE2
:100AA00070B5144C23681B681D68A90707D51A6820
:100AB00022F002021A6023689B6803B198476A0714
:100AC00009D523681A68136823F0040313602368A8
:100AD0001B6903B19847EB070BD523681A681368A5
:100AE00023F0010313602368DB6813B1BDE8704095
:100AF000184770BD1C00002070B5144C23681B689B
:100B00001D68A90707D51A6822F002021A60236837
:100B10009B6803B198476A0709D523681A68136868
:100B200023F00403136023681B6903B19847EB07A4
:100B30000BD523681A68136823F001031360236838
:100B4000DB6813B1BDE87040184770BD2400002079
:100B5000012203685B0103F1844303F58673191FC7
:100B60001A6018680028FCD143F8042C0B68002B8D
:100B7000FCD170470146042000F014BC10B50446B7
:100B8000054B1868A047054B1868A047044B186828
:100B90002346BDE8104018471C000020200000201C
:100BA0002400002010B50446FFF751FF20464FF403
:100BB0006021FFF756FF0122236820465B0103F105
:100BC0008443C3F8502123685B0103F18443C3F8D5
:100BD0000021BDE81040FFF7BBBF007900F0B0BBBB
:100BE00014230139594300680830435823F4405313
:100BF00043EA023242507047036814200833013937
:100C000000FB01314A60704700EBC10340F831201E
:100C100093F90430002B08DB0122591103F01F0364
:100C200002FA03F3014A42F82130704700E100E084
:100C300014220368013902FB01310123490101F14A
:100C40008441C1F80031704714220368013902FB66
:100C500001310023490101F18441C1F8003170479D
:100C60002DE9F04114251C4690464B1E5D43066855
:100C7000FFF7EAFF9DF81C30240244EA8324089B16
:100C800008361C43069B77197451FB60C7F808802F
:100C9000BDE8F08110B5044B1C68A3681BB19847F0
:100CA000012223685A6010BD6000002010B5044B7B
:100CB0001C6823691BB19847102223685A6010BD35
:100CC0006000002010B5054B1C68A36923B198474C
:100CD0004FF4807223685A6010BD00BF600000208E
:100CE00010B5054B1C68236A23B198474FF4805216
:100CF00023685A6010BD00BF6000002010B5054B8E
:100D00001C68A36A23B198474FF4803223685A6065
:100D100010BD00BF6000002010B5054B1C68236BA0
:100D200023B198474FF4801223685A6010BD00BF6A
:100D30006000002010B5054B1C68A36B23B19847D9
:100D40004FF0807223685A6010BD00BF6000002021
:100D500010B5044B1C68A3681BB198470122236897
:100D60005A6010BD6400002010B5044B1C68236954
:100D70001BB19847102223685A6010BD6400002000
:100D800010B5054B1C68A36923B198474FF48072D6
:100D900023685A6010BD00BF6400002038B5104CB5
:100DA000636CD8070BD52368D90408D50D4B1D6893
:100DB0002B6A23B198474FF480522B685A60A36D79
:100DC000DA070BD52368DB0308D5064B1C68A36A3A
:100DD00023B198474FF4803223685A6038BD00BF72
:100DE0000004024064000020000000000000000039
:100DF000012007E0022005E0032003E0042001E0D9
:100E00000520FFE70D4A0121116072B60C4A00214E
:100E10001160074902B4084902B486B005498E46FC
:100E2000704700BFAFF30080AFF30080AFF30080E6
:100E300000000061F9FFFFFFE52E000814ED00E05F
:100E400010E000E008B5054A136833B150689847D0
:100E50000122034B5A6100BF00BF08BD00110020F2
:100E60000004014008B5054A936833B1D06898473B
:100E70000222034B5A6100BF00BF08BD00110020D1
:100E80000004014008B5054A136933B15069984719
:100E90000422034B5A6100BF00BF08BD00110020AF
:100EA0000004014008B5054A936933B1D0699847F9
:100EB0000822034B5A6100BF00BF08BD001100208B
:100EC0000004014008B5054A136A33B1506A9847D7
:100ED0001022034B5A6100BF00BF08BD0011002063
:100EE000000401402DE9F041002705240C4DD5F800
:100EF00014800126A64018EA060F08D0094BE1002D
:100F000053F834201AB10B445868904737430134E2
:100F10000A2CEED16F6100BF00BFBDE8F08100BFB9
:100F200000040140001100202DE9F04100270A24AF
:100F30000C4DD5F814800126A64018EA060F08D0FB
:100F4000094BE10053F834201AB10B44586890471C
:100F500037430134102CEED16F6100BF00BFBDE8F4
:100F6000F08100BF0004014000110020034A136813
:100F700023F0070318431060704700BF00200240B1
:100F800010B50446007900F0DBF92079BDE8104087
:100F900000F0EEB908B50748FFF7F2FF0648FFF783
:100FA000EFFF0648FFF7ECFFBDE808400448FFF7F5
:100FB000E7BF00BFD8000020E0000020E8000020CC
:100FC000F000002070B50F250368CE0801F007007F
:100FD000840053F82600092A05FA04F520EA0505DD
:100FE00014BF10460820A0402843082A43F82600D2
:100FF00007D10120DA6800FA01F122EA0101D96083
:1010000070BD092AFCD10122D86802FA01F101431E
:10101000F5E708B5032000F093F9BDE80840032088
:1010200000F0A6B903681A6812F4985FFBD11A6839
:1010300042F480721A60704703681A6812F4985F6D
:10104000FBD11A6842F400721A600268136813F444
:10105000985FFBD17047000070B502684568516920
:1010600092695A4AAE781268CB07044606F0010628
:10107000C26014D50023EB8000F0D8F822685368D2
:1010800043F48063536026B12268136843F480639D
:10109000136000212B88226846EA4303136111F094
:1010A0000A0F10D0AB88002E45D0012B0AD1226840
:1010B0002046136823F480631360A38B012B37D978
:1010C000FFF7B0FF002101F08402802A03D1A38B37
:1010D000002B49D1002101F08402842A0DD1A18B7B
:1010E0002046002954D0FFF79DFF22685369D90795
:1010F000FCD5002163680C3363604B0661D523681F
:10110000AA681969EB88581CE880D154AB88EA8832
:10111000591E8A424BD122682046136823F480630B
:101120001360A38B022B3ED9BDE87040FFF77ABF56
:10113000FFF782FFC6E7012B08D9EB88A9685A1C84
:10114000EA802268CB5C13613146BCE7002BFBD1FF
:101150002046FFF771FF2268536823F40073536041
:10116000022384F82330ADE7EB88A9685A1CEA8093
:101170002268CB5C1361EA88AB889A42AAD12268C4
:10118000536823F480635360A38B013BA383A1E7DF
:10119000FFF752FF2268536823F400735360022361
:1011A00084F82330A9E7BDE87040FFF745BF9A42B5
:1011B00007D1A38B013B9BB2A3831BB9022384F805
:1011C000233070BD63680C336360FAE7AC25002000
:1011D00008B50268536903F47063836000235361A8
:1011E00002689361FFF728FF0268536823F4E06305
:1011F0005360FF2380F8233008BD00000148FFF74B
:101200002BBF00BFF80000200148FFF725BF00BF3B
:101210001C0100200148FFF7DBBF00BFF8000020E1
:101220000148FFF7D5BF00BF1C01002010B50446E0
:10123000002190F9210000F00FF894F9220000211C
:10124000BDE8104000F008B84AF6AA22014B1A6027
:10125000704700BF003000400028A8BF00F1604088
:101260004FEA0111B8BF054BC9B2B5BF00F00F007E
:1012700000F56140195480F80013704714ED00E048
:1012800010B5002421F0604121F07F01064A01439E
:10129000916060B20F210134FFF7DEFF3C2CF8D1E2
:1012A000F02382F8233010BD00ED00E0014B13F86D
:1012B0001000704768BF0208064B5A6822F003020C
:1012C00002435A6080005A6802F00C028242FAD14E
:1012D000704700BF00100240030AC2B2012003F1B0
:1012E000804303F504331968904008431860704741
:1012F0000121030A03F1804303F504331A68C0B2E5
:1013000001FA00F022EA000018607047030A03F1B6
:10131000804303F504331A680223C0B203FA00F0D5
:1013200010407047054A0168536823F474130B4357
:10133000416809680B435360704700BF00100240CA
:1013400010B50446FFF7B2FF074B53F820200748BB
:1013500000EB4400437803EBC20301229B0003F13E
:1013600084431A6010BD00BF4001002068BF02081E
:1013700010B50446FFF79AFF084B53F820200848A1
:1013800000EB4400437803EBC20301229B0003F10E
:1013900084431A6000221A6010BD00BF580100206B
:1013A00068BF020810B5054A054C536854F8200080
:1013B00023EA00030B43536010BD00BF001002403E
:1013C00054BF020810B50446FFF770FF074B53F8EF
:1013D0002020074800EB4400437803EBC2030022BF
:1013E0009B0003F184431A6010BD00BF4C01002034
:1013F00068BF020801EBC000800000F18440026079
:10140000704710B504460079FFF79AFF2079BDE8D0
:101410001040FFF7ADBF012206210068FFF7EABFC9
:10142000002206210068FFF7E5BF10B50C460168F1
:1014300003464A6822F0E0024A600268126862408D
:1014400012F4205F01D0FFF7EBFF1A681846146012
:10145000BDE81040FFF7DFBF134343F00403194317
:10146000FFF7E3BF0122006811460430FFF7C2BF57
:101470000068002201210430FFF7BCBF0068012290
:1014800000210430FFF7B6BF002203685B0103F1BF
:101490008443C3F880207047F8B51046069C9DF839
:1014A0001C709DF820609DF8245081B10B223946B4
:1014B0002046FFF787FD042231462046FFF782FDD4
:1014C0000B2229462046BDE8F840FFF77BBD1946B0
:1014D0000422FFF777FD042239462046FFF772FD0C
:1014E0000B2231462046FFF76DFD0422E9E7FEE7B7
:1014F0000722024B58601A60704700BF10E000E0FE
:10150000044A136801331360034B1B6803B1184787
:10151000704700BFAC2500208011002011F0010FA2
:1015200070B501F1FF340DBF082500256FF0FF01F4
:101530006FF47F410068C4F34004183050F8246011
:1015400013433140AB400B4340F8243070BD026878
:101550004B1E02F1404220329B0003EBC2030122EA
:101560009B0003F184431A607047000010B50446E5
:101570000948A0470948A0470948A0470948A0478B
:101580000948A0470948A0470948A0472346BDE8A5
:1015900010400848184700BF84010020AC0100201B
:1015A000D0010020F4010020180200203C0200209D
:1015B000480200205402002010B504460079FFF7CD
:1015C000BFFE2079BDE81040FFF7D2BE00230268BD
:1015D00013600268D3604279012A9CBF02681362DB
:1015E000704703791E2B10D9212B0ED0202B0ED93A
:1015F000222B01D0252B04D102298CBF00200120F1
:1016000070474B1E584258417047012070470020D8
:10161000704700008B1C40F82320012342798B4047
:1016200010B5DB43EAB1012A41F65F6218BF01221F
:101630001340012204682361036803F140430C3323
:1016400001EBC3039B0003F184431A6042790379E1
:101650003ABB072915D8DFE801F007151515151A4B
:101660001A1F41F6FF62E3E71A2B0CBF19232C2344
:101670000122590903F01F0302FA03F3254A42F835
:10168000213010BD1A2B0CBF1B232E23F0E71A2B81
:101690000CBF1A232D23EBE71A2B0CBF18232B2387
:1016A000E6E71B3B0C2BECD801A252F823F000BF5D
:1016B00011170008E5160008E9160008ED160008E5
:1016C000F1160008F516000883160008F916000840
:1016D000FD16000801170008051700080917000883
:1016E0000D1700081D23C3E71E23C1E73223BFE700
:1016F0003623BDE73723BBE71823B9E71923B7E73C
:101700001A23B5E72B23B3E72C23B1E72D23AFE74B
:101710001C23ADE700E100E00022036803F1404331
:101720000C3301EBC3039B0003F1844302311A60C5
:1017300040F82120704738B504460D461346002274
:10174000FFF7ECFE29462046BDE83840FFF7FFBE14
:1017500038B543790546022B0C4615D0042A13D818
:10176000DFE802F003132A2D3A00FFF7D5FF0268E5
:10177000631E02F1404220329B0003EBC2030022B1
:101780009B0003F184431A6038BD0022036803F113
:1017900040430C3301EBC3039B0003F184431A6005
:1017A0000823602221462846FFF7B8FE2146284636
:1017B000BDE83840FFF7CBBE00231022F2E74FF21E
:1017C000F11203689A61032203689A600368012298
:1017D0005B0103F18443D6E70122BDE83840FFF7FF
:1017E000AABF000010B5074A1468E36821690B40DE
:1017F0001B0606D5536A23B19847236923F080035B
:10180000236110BD8401002010B5074A1468E36805
:1018100021690B40DB0706D5936823B198472369FC
:1018200023F00103236110BD84010020F8B50C4DA5
:101830002F68FE683B691E4016F0400403D02C6AF6
:101840000CB1A0474024B30604D5EB6913B1984707
:1018500044F020043B6923EA04043C61F8BD00BF66
:1018600084010020F8B5134D2F68FE683B691E40C7
:1018700016F0100403D0AC690CB1A0471024310756
:1018800004D56B6913B1984744F00804720704D576
:101890002B6913B1984744F00404B30704D5EB68EF
:1018A00013B1984744F002043B6923EA04043C6105
:1018B000F8BD00BF84010020F8B51A4D2F68FE68FE
:1018C0003B691E4016F0400403D02C6A0CB1A047BF
:1018D0004024F30604D5AB6913B1984744F01004D3
:1018E000300704D56B6913B1984744F008047107B9
:1018F00004D52B6913B1984744F00404B20704D50A
:10190000EB6813B1984744F00204F30704D5AB68C1
:1019100013B1984744F001043B6923EA04043C6195
:10192000F8BD00BFAC010020F8B51A4D2F68FE6865
:101930003B691E4016F0400403D02C6A0CB1A0474E
:101940004024F30604D5AB6913B1984744F0100462
:10195000300704D56B6913B1984744F00804710748
:1019600004D52B6913B1984744F00404B20704D599
:10197000EB6813B1984744F00204F30704D5AB6851
:1019800013B1984744F001043B6923EA04043C6125
:10199000F8BD00BFD0010020F8B51A4D2F68FE68D1
:1019A0003B691E4016F0400403D02C6A0CB1A047DE
:1019B0004024F30604D5AB6913B1984744F01004F2
:1019C000300704D56B6913B1984744F008047107D8
:1019D00004D52B6913B1984744F00404B20704D529
:1019E000EB6813B1984744F00204F30704D5AB68E1
:1019F00013B1984744F001043B6923EA04043C61B5
:101A0000F8BD00BFF4010020F8B51A4D2F68FE683C
:101A10003B691E4016F0400403D02C6A0CB1A0476D
:101A20004024F30604D5AB6913B1984744F0100481
:101A3000300704D56B6913B1984744F00804710767
:101A400004D52B6913B1984744F00404B20704D5B8
:101A5000EB6813B1984744F00204F30704D5AB6870
:101A600013B1984744F001043B6923EA04043C6144
:101A7000F8BD00BF1802002010B5074A1468E368DB
:101A800021690B40DB0706D5936823B1984723698A
:101A900023F00103236110BD3C02002010B5074A6A
:101AA0001468E36821690B40DB0706D5936823B10E
:101AB0009847236923F00103236110BD48020020E9
:101AC00010B5074A1468E36821690B401B0606D568
:101AD000536A23B19847236923F08003236110BD23
:101AE0005402002010B5074A1468E36821690B40CE
:101AF000DB0706D5936823B19847236923F00103D8
:101B0000236110BD54020020F8B50C4D2F68FE680B
:101B10003B691E4016F0400403D02C6A0CB1A0476C
:101B20004024B30604D5EB6913B1984744F0200470
:101B30003B6923EA04043C61F8BD00BF5402002065
:101B4000F8B5134D2F68FE683B691E4016F010046F
:101B500003D0AC690CB1A0471024310704D56B69E0
:101B600013B1984744F00804720704D52B6913B1E8
:101B7000984744F00404B30704D5EB6813B19847C1
:101B800044F002043B6923EA04043C61F8BD00BF51
:101B90005402002000223F2110B504464368103053
:101BA0009A801860DA801981A3689A80DA8004F13B
:101BB000500219811A6094F89000FFF7C1FB94F964
:101BC0009130002B08DB0122591103F01F0302FAA8
:101BD00003F3024A42F8213010BD00BF00E100E0EB
:101BE0000368DA6842F02C02DA60DA6842F40052E4
:101BF000DA60704710B5036881688C88CA8892B231
:101C0000A242FAD1DA68910402D51A685206F9D5CF
:101C1000DA6822F40052DA60426893889BB2D3807B
:101C2000826893889BB2D38010BDF0B50B46064600
:101C30000468B568581AAF88ED88ADB2BD4204D1CA
:101C400025682D0601D5824210D8E36823F0800371
:101C5000E3609042B3680DD39A88DB889BB29342CD
:101C60001EBFE36843F08003E360F0BD13F8010B8F
:101C70006060DEE7DD889F880135BD42ECD0DF88FB
:101C80001D89ADB2BD4203D19D88ADB2002DE3D018
:101C9000DD8811F800C01F68ADB207F805C0DF8805
:101CA0001D890130ADB2BD420FBF0025DD88013571
:101CB000ADB2DD80CDE703468288016892B2885CD0
:101CC00099881A89C0B292B28A420FBF00229A88BC
:101CD000013292B29A80704738B5C3888288013346
:101CE000934204460D4607D0C28803899BB29342B3
:101CF00014D183889BB28BB92046FFF7DCFFE388C1
:101D000022689BB2D554E28823899BB293420FBFCD
:101D10000023E38801339BB2E38038BD4FF0FF30EE
:101D2000EDE770B51E460546084611460422059C9F
:101D3000FFF748F90B229DF810103046FFF742F9E3
:101D400029686302CA6803F4F05322F4F0521204C3
:101D5000120C1343CB602A682402136904F4405424
:101D600023F440531B041B0C1C43146170BD38B595
:101D70000546144611B900F0FDF8014619235943F0
:101D8000A200B1FBF2F26421B2FBF1F001FB1023DF
:101D90001B013233B3FBF1F303F00F032C6843EA6A
:101DA00000139BB2A36038BD10B50446084B1868F9
:101DB000A047084B1868A047074B1868A047074B77
:101DC0001868A047064B18682346BDE8104018471E
:101DD00084020020880200208C0200207C02002067
:101DE0008002002010B5104CE368980607D52368E0
:101DF000990604D561680D48C9B2FFF76DFFE36825
:101E00001A060BD523681B0608D509488288C388A3
:101E10009BB2934203D0FFF74EFF606010BDE368B2
:101E200023F08003E360F9E700380140B41100209B
:101E3000C011002010B5104CE368980607D5236840
:101E4000990604D561680D48C9B2FFF745FFE368FC
:101E50001A060BD523681B0608D509488288C38853
:101E60009BB2934203D0FFF726FF606010BDE3688A
:101E700023F08003E360F9E700440040CC11002028
:101E8000D811002010B5104CE368980607D52368D8
:101E9000990604D561680D48C9B2FFF71DFFE368D4
:101EA0001A060BD523681B0608D509488288C38803
:101EB0009BB2934203D0FFF7FEFE606010BDE36863
:101EC00023F08003E360F9E700480040E4110020BC
:101ED000F011002010B5104CE368980607D5236870
:101EE000990604D561680D48C9B2FFF7F5FEE368AD
:101EF0001A060BD523681B0608D509488288C388B3
:101F00009BB2934203D0FFF7D6FE606010BDE3683A
:101F100023F08003E360F9E7004C004084110020C7
:101F20009011002010B5104CE368980607D523687F
:101F3000990604D561680D48C9B2FFF7CDFEE36884
:101F40001A060BD523681B0608D509488288C38862
:101F50009BB2934203D0FFF7AEFE606010BDE36812
:101F600023F08003E360F9E7005000409C1100205B
:101F7000A811002008B590F89000FFF797F920B15C
:101F80000128034818BF002008BD0248FCE700BF35
:101F900000A24A040051250230B548F28005094CE0
:101FA000226822F4804222F070022A4342402260DA
:101FB000236823F4E04323F040032B434B4023608A
:101FC00030BD00BF005C0040284B072818BF1870C8
:101FD0001A78052A48D8DFE802F003131E232B36AF
:101FE0004FF6FB71224A106C014011644FF43F41DF
:101FF000116406221A701F4B1B685A7B1A737047B4
:102000004FF6FB711A4A106C014011644FF43F41C6
:102010001164042202E002225A7003221A7006E0C0
:102020005A78013AD2B25A705A78002AF1D07047E1
:102030000F490A6C92B242F010020A6405221A702B
:102040000A225A7070475A78013AD2B25A705A78B6
:10205000002AECD14FF6EF720549086C02400A6481
:10206000044A1268517B11730622D7E7B02500207D
:10207000005C0040740500202DE9F0415F4D604A8E
:102080002B68546C1B68A4B223405E0506D56FF420
:10209000806353645B4B1B685B6898472A681368CE
:1020A0002340980442BF6FF40051554B59641368A4
:1020B0002340D90406D56FF4C052514B00205A6416
:1020C000FFF782FF2B681A68224012050FD54C4992
:1020D0000A6C92B242F0080042F00C0208640A64F2
:1020E0001A7B5A7303221A736FF4C0524A641A6837
:1020F0002240970542BF6FF40071414A51641B684A
:102100002340DE0506D56FF480723D4B07205A64EC
:10211000FFF75AFF2B681B681C40240403D5384C7A
:10212000676C3B0401D4BDE8F0816FF4004317F005
:102130000F06636438D148F68003D4F8008018EAAB
:10214000030FECD01FFA88F32F4D304E03F44052AA
:102150004FF4005003F03003202133802A80FFF732
:102160001BFFF80623680ED423F4E14323F0700329
:102170001B041B0C236000F09BFD31882888BDE800
:10218000F041FFF709BF18F0800FEDD123F0700385
:102190001B051B0D18F4006F236002D000F0A6FB96
:1021A000EBE700F003FDE8E7B40004F1804404F538
:1021B000B844276839040DD5236823F070031B0544
:1021C0001B0D23602A6806F180439268013B52F898
:1021D000233098473A06A2D5236806F1804623F4B7
:1021E000E14323F070031B041B0C23602B68013EAA
:1021F0005B6853F82630984791E700BF74050020CC
:10220000005C0040B8250020B2250020B425002045
:10221000800000F1804000F5B840036823F480435B
:1022200023F0700343F4004343F0800359400160FE
:102230007047000018B90722024B1B681A82024837
:10224000704700BFC0250020E405002000220121C6
:1022500010B5104B1B689A720F4B19640F49086830
:102260000260086804681C644FF4E0545A64046017
:10227000086804681C644FF43F445A6404600868AA
:10228000006818644FF48010054B18600B681A73CF
:1022900010BD00BFC0250020005C00407405002078
:1022A00000E100E013B5104B1A68137803F07F03C8
:1022B000212B16D1022808D0222801D0022405E0C3
:1022C00093780A4A03F0030313700024084B1B6839
:1022D00023B102A901F8010D02209847204602B05F
:1022E00010BD0224FAE700BFC02500200012002024
:1022F000FC11002021B901288CBF0220002070476A
:1023000002207047054B1B689B78032B04D80449B7
:1023100001EBC30100F0BCBA00207047C0250020CB
:10232000CC050020014900F0B3BA00BF88050020A9
:10233000014900F0ADBA00BF9005002037B5114C3F
:102340002268127802F07F02212A02D0022003B014
:1023500030BDA0F12003012B0B4B0C4D1B6888BF37
:10236000002523B102A901F8010D02209847002D94
:10237000ECD0236800249D615C822046A84720465B
:10238000E5E700BFC0250020FC1100203522000831
:102390002DE9F04700254FF0C00948F68F1648F2A6
:1023A00080074FF0400A434B434C1B68DFF83881ED
:1023B0009D7283F80990256523682846334043F4CD
:1023C00000732360236803EA08033B4383F0100390
:1023D0002360226D394B520043F802A08022236D06
:1023E0005B0003F1804303F5C0431A60236823F4C4
:1023F000E24323F070031B041B0C2360304B1B686B
:1024000093F82C1000F072F84FF440512846FFF773
:10241000FFFEA3682946334043F4C063A360226DE6
:10242000284B520013444FF480721A60A2680220B5
:1024300002EA08023A4382F02002A260FFF7E8FEB7
:10244000E36851463340E360226D1F4B5200134452
:102450004FF4887203201A6000F048F84FF440519E
:102460000320FFF7D5FE636829461E406660226D93
:10247000164B520043F802906368012003EA0803F8
:102480003B4383F020036360FFF7C2FE0122104B41
:1024900028461B681A7300F0EBFBFF220D4B1D60F2
:1024A0000D4B1D600D4B1D600D4B1D600D4B1A70CB
:1024B000BDE8F087C0250020005C004008600040B7
:1024C000B8250020206000403860004010600040C7
:1024D00074050020041200200812002010120020B1
:1024E000141200200C120020BF8FFFFF0D4B0E4A6C
:1024F0001B6D3E2903EBC0004FEA400002440AD99D
:102500004B09C80604BF03F1FF339BB29B0243F49F
:102510000043136070474B08C90748BF01339B0253
:10252000F7E700BF005C00400C60004010B5064CAF
:1025300018B9012223681A8210BD044B1B681B685E
:10254000984720680A30F7E7C0250020BC25002006
:1025500010B5064C18B9012223681A8210BD044B2D
:102560001B689B68984720680C30F7E7C02500205F
:10257000BC25002010B51E4B1C68002310B9022397
:10258000238210BD1B4803802178024611F07F0191
:1025900012D1617A8C0644BF022303700378480687
:1025A0004CBF23F0010343F001031370124B1B686F
:1025B0001B6998470F48E4E70129E2D0022915D1A9
:1025C000217901F00F039B0003F1804303F5B84329
:1025D00009061B6805D503F03003102BE6D1012353
:1025E000E3E703F44053B3F5805FF7E71846C8E725
:1025F000C0250020B6250020BC2500202DE9F84389
:10260000234FDFF8A0803D682C8AD4B92E7A042E9F
:1026100017D120490B78012B0ED11F4B1A681F4B85
:1026200092B213445B001C6030230C70A8F8003099
:102630003B681E72BDE8F88310230726A8F8003017
:10264000F6E7AB8A9C4294BF042602269C4228BF30
:102650001C46AB69204698478146002000F0B4FB39
:1026600022460146484600F052FB2146002000F079
:10267000C7FB2B8A4FF440521B1B2B826B8A1C44D6
:102680003023A8F80030064B6C821A80D0E700BFD8
:10269000C025002018120020505C004002300020AD
:1026A000B2250020B425002010B50A4B0A491B684A
:1026B00049789A7891420AD3D97841B99C8834B93B
:1026C0009A72064B1B685B689847204610BD022033
:1026D000FCE700BFC0250020C8050020BC25002065
:1026E00038B50F4A0F4D12682B689269997818799E
:1026F00090472B6804469A7A7AB170B95A7962B9D0
:10270000DB7853B9084B1B68DB6898472B681A794C
:10271000DA729A781A73204638BD0224FBE700BFAC
:10272000B8250020C0250020BC25002038B52B4B43
:102730001B68187810F07F0004D15A7A22F020022A
:102740005A7238BD022847D15A88002AF9D15A79DD
:10275000002AF6D11979224D21F08000840004F17D
:10276000804404F5B844226849B22D780029B4BFEA
:1027700002F0300202F4405285422DD962B39B7AB6
:1027800053B30029236811DA03F03003102B07D16B
:10279000C4B2204600F004FB3021204600F0D8FAF5
:1027A000104B1B685B6998470020CAE703F440534D
:1027B000B3F5805FF4D10C4D58B90C4B93F82C1045
:1027C00000F02CFB23682B409BB283F44053236022
:1027D000E6E700F0D2FAF5E70220B2E7C0250020D4
:1027E000C8050020BC2500208FBFFFFF98050020F2
:1027F00038B51B4B1B4D18682D78017921F08004EA
:10280000A30003F1804303F5B8431A6849B20029D5
:10281000B4BF02F0300202F44052A5421DD94488F0
:10282000DCB9D2B1827AC2B11A680029B5BF22F4EC
:10283000E04222F4804222F0400222F07002B5BF52
:1028400092B292B282F0100282F480521A60064B69
:102850001B689B699847002038BD0220FCE700BF39
:10286000C0250020C8050020BC25002008B5064B67
:102870001A68537A43F020035372044B1B68DB69D8
:102880009847002008BD00BFC0250020BC250020BF
:1028900010B5054B1C68628A18B98B889B1A238275
:1028A00010BD08681044FBE7C025002008B50B4B9D
:1028B000002093F82C1000F0B1FA094B1B68187A2D
:1028C000082806D14FF48052064B1A801022064B7E
:1028D0001A80A0F109035842584108BD980500200C
:1028E000C0250020B2250020B425002073B5964CE9
:1028F000964E216832680B7A092B16D0944B92B20F
:1029000013445B001B885B0003F1804303F5C04365
:102910001A780A7059782268517099882268518013
:102920001989226891809B89D380012223681A72B9
:10293000DA885D78002A64D11A7812F07F024DD1CE
:10294000092D03D1FFF7B0FE40BB16E0052D20D1C5
:1029500093F90220002A07DA08232268137202B0D2
:10296000BDE87040FFF7A2BFDA78002AF4D19A8858
:10297000002AF1D19B7A002BEED13268754B92B2CE
:10298000134400225B001A603022734B1A80062326
:10299000E3E7032D14D19A78012A08D06F4B28461B
:1029A0001B685B699847032828D10923D5E79A88D3
:1029B000002AF3D15B7A9A06F0D5FFF757FFC3E7F9
:1029C000012DEBD19A78012AE8D19A88002AE5D125
:1029D0005B7A9B06E2D5FFF7A9FEB5E7012A04D191
:1029E0000B2DDBD1FFF77CFEAEE7022AD6D1012DFD
:1029F000F1D0032DD2D1FFF7FBFEA5E70028ABD124
:102A0000BBE7062D12D11A7855065AD1DB78534A06
:102A1000012B126802D1D369DBB952E0022B01D13C
:102A2000136AF9E7032B4CD1536AF5E7002D54D113
:102A30005988002945D15A6822F0FF02B2F5003FBB
:102A40003FD11A7812F07F0216D19B88002B38D123
:102A5000434B0025226828465582936198472846B3
:102A60004FF6FF7123681A8A8A4233D0022801D0B8
:102A7000002A55D108222EE0012A0AD1374A1879B6
:102A8000126892699047E0B923689B7A002BDFD1E6
:102A900017E0022A15D11A7902F00F018B001006F7
:102AA00003F180432F4803F5B8431B6800784CBFFF
:102AB00003F0300303F44053884202D912F0700F40
:102AC000E4D0264B22681B6850781B69984703287E
:102AD000C6D1236809221A7241E7082D04D11B7858
:102AE0005B06EED1204BB4E70A2DEAD11A7802F04A
:102AF0007F02012AE5D19A7A002AE2D0598800297A
:102B0000DFD15A6822F0FF02B2F5803FD9D1134AD3
:102B100018791268926990470028D2D1134B98E730
:102B200093F90010002936DAD9880C4C01910198EC
:102B3000246882421CD9019A1A8294F82C209A8225
:102B4000FFF75CFD0BE700BFC0250020505C004094
:102B50000430002002300020B4250020B8250020D9
:102B600075250008C80500202D25000851250008FE
:102B70008A42E2D294F82C00824203D20021094A10
:102B80001170DAE792FBF0F100FB1122002AD4D198
:102B9000044A0121F4E703221A724FF44052024B17
:102BA0001A80DCE618120020B2250020F8B52A4E63
:102BB0003468237A032B01D0052B44D1A369B3B128
:102BC000258AA5B1A28A954228BF1546284698476E
:102BD000238A07465B1B2382638A00202B4463827F
:102BE00000F000F92A460146384600F09FF8238A93
:102BF00053B100214FF44052184B08461A8000F0A0
:102C0000FFF83022164B1A80228AA18A336891423B
:102C100009D803221A7233681B7A32681372BDE82E
:102C2000F840FFF743BE0AB10522F3E70621197207
:102C30000C4B19680C4B89B20B445B001A603022B4
:102C4000074B1A80E7E7072B03D1084B1B68DB68AB
:102C500098470823E1E700BFC0250020B2250020E7
:102C6000B4250020505C004002300020B825002030
:102C7000002210B50C4B1C78A24204D30B4B40F041
:102C80008000186010BD02F1805303F5B8539B001B
:102C9000196821F4E04121F070010904090C114385
:102CA00019600132E8E700BFC80500204C5C004015
:102CB00010B5134C23681A7A022A01D0042A09D1CC
:102CC000FFF79CFC23681B7A22681372BDE8104052
:102CD000FFF7ECBD062A10D15A78052A09D11A78D7
:102CE000520606D19878FFF7C3FF064B1B681B6A94
:102CF0009847054B1B689B6898470823E4E700BF8B
:102D0000C0250020BC250020B8250020704701F117
:102D10000051013201F540515210490002B970478B
:102D200030F8023B013A21F8043BF7E7002310B5E5
:102D300001F10051013201F54051521049009A420F
:102D400000D110BD51F8234020F813400133F6E7BD
:102D5000800000F1804000F5B8400368CA0623F403
:102D6000E04323F040039BB248BF83F010038A0680
:102D700048BF83F0200303607047800000F180406B
:102D800000F5B84003685B0409D5036823F4E04309
:102D900023F070031B041B0C43F480430360704753
:102DA000800000F1804000F5B84003685B0609D55B
:102DB000036823F4E04323F070031B041B0C43F06F
:102DC0004003036070470000054B1B689BB203EB98
:102DD000C00000F1005000F54050400000887047EE
:102DE000505C0040044B1B689BB203EBC000034BDC
:102DF00003445B0018887047505C0040043000209A
:102E0000044B1B689BB203EBC000034B03445B0005
:102E100019607047505C0040023000200D4B0E4A94
:102E20001B683E299BB203EBC00002444FEA4202FA
:102E30000AD94B09C80604BF03F1FF339BB29B02BA
:102E400043F40043136070474B08C90748BF013380
:102E50009B02F7E7505C00400630002013B50446A3
:102E60008DF8071001220DF107012046FEF7DDFE67
:102E70000028F7D002B010BD38B505464C1E14F935
:102E8000011F01B938BDC9B22846FFF7E7FFF6E7D1
:102E900008B5134B03221C6801212046FEF792F867
:102EA000002301211A46B2F5007F0CD072B1B3F5B0
:102EB000007F01D100230A449A420CD902252068E0
:102EC00005610133EFE74FF0FF31F0E7B3F5007F25
:102ED0004FF00101EED020684FF40035F0E700BF5D
:102EE00050BF020808B5034B0BB100F045F862B6BD
:102EF000FFF7CEFF792F000808B5044B23B100F08F
:102F00005BF80349FFF7B8FFFFF7ECFFB92F0008A4
:102F10003BC00208FDF7CAB908B500F061FC00F03B
:102F200027FDFCE720F044BE32280BD8064B03EB0C
:102F3000001043681A68437B343203F18043013B3D
:102F400042F82310704700BFE0BB020838B50C46BA
:102F50000546072104EB042400F046F8A1B22846F8
:102F6000BDE83840FFF7E0BF002203685B0103F1D2
:102F70008443C3F8002170474FF0FF3310B50A4C6B
:102F80000A48C4F88030C4F88430FEF7EFFA0848E5
:102F9000FDF7F4FD0748FEF707FF4FF40023236019
:102FA0004FF48013236010BD00E100E0CD15000850
:102FB000692F0008F51B000810B5094B094C18686B
:102FC0000B220221FDF7FEFF2068FEF7E3FD2068DB
:102FD0004FF416520021FEF7CAFE206810BD00BF54
:102FE0004CBF020888020020322838B53BD8082997
:102FF00039D8DFE801F00529171A1D20172326000C
:1030000000240322184B00011D18297B1858FDF7D6
:10301000D9FF686838B3697BCCB1BDE8384001227C
:10302000FEF796BB00240422ECE700242246E9E7E1
:1030300000240922E6E700240822E3E701240B220A
:10304000E0E701240F22DDE700240722DAE7026827
:103050004B1E02F1404220329B0003EBC2039B0057
:1030600003F184431C6038BDE0BB020808B50121B0
:103070001048FDF7C5FA02210F48FDF7C1FA0321F8
:103080000E48FDF7BDFA04210D48FDF7B9FA0521F8
:103090000C48FDF7B5FA06210B48FDF7B1FA0721F8
:1030A0000A48FDF7ADFABDE8084008210848FDF7D9
:1030B000A7BA00BF1C1200202012002024120020FA
:1030C000281200202C120020301200203412002080
:1030D0003812002032280DD8074B000119181B5850
:1030E000097B1B689A6801238B40134214BF01209F
:1030F0000020704700207047E0BB0208322810B55E
:103100000ED8084B00011C181B58B1FA81F11A683F
:103110000123207B49098340090103FA01F1116170
:1031200010BD00BFE0BB02080A4A0B4B11689B6848
:1031300000BF00BF12688A42F6D14820C3F58C3325
:1031400003F5A073B3FBF0F34FF47A7000FB023089
:10315000704700BFAC25002010E000E038B5044601
:10316000FFF7E2FF05465CB1FDF770FCFFF7DCFFFF
:10317000401BB0F57A7FF6D3013C05F57A75F5D1A1
:1031800038BD28B10C234343013B18460138FDD814
:10319000704700000449054BCA6822F4E06212043B
:1031A000120C1343CB60704700ED00E00003FA05FA
:1031B000704701207047000013B5104C204614F0F2
:1031C00058FF2046042114F0EDFE204602220C494F
:1031D00014F0ECFE002302220A4900932046A023AB
:1031E00014F04AFF204614F03DFF204614F02CFF57
:1031F000204602B0BDE8104014F02DBF441200205C
:10320000EB0500203E12002024280AD0252807D1F3
:103210000123054A32F81330044AC3F389031380AB
:1032200070470023F5E700BF3E1200203C1200204B
:10323000044B03EB00135B6813B1C0B2FFF786BE0B
:10324000704700BFE0BB0208024B0348196814F046
:10325000A7BE00BF1C0000204412002010B5074C80
:10326000032294F84C10206CFDF7ACFE236C94F80C
:103270004C101A6801238B40136110BDE0BB02089B
:10328000062838B58CBF00250A4B0B4C98BF1D5C37
:103290002046E46613F0C3FB2946204613F0D1FB19
:1032A0002046012113F0DAFB2046BDE8384000211A
:1032B00013F0E1BB60C002089C240020FF210148FC
:1032C00013F0F4BB9C2400200B4602460021014869
:1032D00013F0AABC9C2400200146014813F030BD25
:1032E0009C24002070B50D46064C0146204613F084
:1032F00027FD29462046BDE8704001234FF40072A7
:1033000013F012BD9C2400200228F8B506460D4695
:1033100039D0052836D100262C4C02222368012101
:103320005B0103F184431E602046FEF711FA284931
:103330004FF6FF70B1FBF5F11122814228BF014623
:1033400023685E629A62D8629A69204622F0FF0280
:103350009A6159635B0103F184430121DE611D4AD7
:10336000FEF758F901213220FDF776FF012223688C
:103370005B0103F18443C3F8802223685B0103F1FE
:1033800084431A60F8BD0027134C024623680121CC
:103390005B0103F184431F602046FEF7D9F940F238
:1033A000E73223680D495F62B1FBF5F19A624FF68F
:1033B000FF72914228BF1146DA6220465963084ADB
:1033C0000121FEF727F931461C20CDE71802002025
:1033D00000093D00552E0108AC01002040190100F4
:1033E0001540010802280CD005280CD1074B1B689A
:1033F0005B0103F18443D3F88401003018BF01203E
:103400007047034BF3E70020704700BF180200200D
:10341000AC010020013807289ABF024B53F8200066
:103420000020704768C002080120014B18707047E7
:103430005412002008B514F0E1FE0022014B0120D7
:103440001A7008BD541200202DE9F8431B4D984610
:103450002B7806460C46174683B114F0C3FE184875
:1034600014F078FE052802D00120BDE8F883154845
:1034700014F070FE0528F7D100232B70254607EBCA
:1034800004094D45A5EB04030DD0306815F8011B68
:1034900000F1806000F5FC301844400014F07CFE20
:1034A0000528EED0E0E7BAB2404621460BF034FAE8
:1034B000326800203A443260D7E700BF541200203F
:1034C00000F0030800F803082DE9F74305460F460E
:1034D00090461E4600249DF828902A6844452244C0
:1034E00013D002F1806202F5FC32520013788DF89D
:1034F0000730B9F1000F00D03B5501220DF1070153
:1035000030460BF009FA0134E7E700202A6003B0E7
:10351000BDE8F083FDF798BE70470368C9B21B6829
:10352000184700000023054A9A56824204D001330E
:10353000162BF8D10020704701207047DCC102082B
:1035400008B500F05DFABDE80840014800F046BA51
:10355000C2C0020808B50EF0E5F80EF051F9FE20E1
:103560000DF07CFABDE808400DF056BA124AD2F8C8
:10357000803092F88C101868012303FA01F10904D5
:103580000161D2F81011086892F81C1103FA01F1D8
:1035900009040161D2F82012086892F82C1203FA8B
:1035A00001F109040161D2F8D01292F8DC22096815
:1035B00093401B040B617047E0BB0208044BD3F837
:1035C000D02293F8DC12012312688B4013617047FC
:1035D000E0BB0208012130B4124BD3F88020106800
:1035E00093F88C2001FA02F202610F48027822F06F
:1035F00001040470D3F81041256893F81C4101FAC6
:1036000004F42C6122F003040470D3F8204293F8F0
:103610002C322468994022F007022161027030BCEC
:10362000FFF7CCBFE0BB02083717002008B540F217
:10363000E933013B08D000BF00BF00BF42F62F2294
:10364000013A00BFFCD1F4E772B640F2E933013B26
:1036500008D000BF00BF00BF41F29312013A00BF83
:10366000FCD1F4E710F060F9FFF754FFFCE700002D
:10367000044608B510F058F900F0C2F9054800F00A
:10368000ADF90548002C18BF20460BF017F8FFF7DE
:10369000CDFF00BFDAC00208D1C0020870B5374BB9
:1036A00005461B78032B01D803F062FF344B354AE3
:1036B0001B6814689BB1344909680B44E31A002B5A
:1036C0000DDB00F09DF9314B3148196800F09EF98F
:1036D0000A213048FFF721FF0020FFF7C9FF2E4BDA
:1036E0001B6843B12D4908782D49097888420ED0CE
:1036F0001268254B1A602B4D00F0D2FE2B68E31A9E
:10370000002B03DB64340DF0A5FF2C6070BD264A4E
:1037100085BB1D4909680B44E31A002B2ADB13788B
:10372000002BE8D101231370204AD2F880100868DA
:1037300092F88C1003FA01F101611D48017821F023
:1037400001050570D2F810512E6892F81C5103FA49
:1037500005F5356121F003050570D2F8205292F885
:103760002C222D68934021F007012B610170FFF797
:1037700025FFC0E700231370BDE700BF44140020FD
:1037800060120020AC250020781200208812002052
:1037900088C002085C100020F0050020011D0020F8
:1037A000021D0020581200205C120020E0BB02081D
:1037B0003717002008B50AF0CFFD02F085FB002086
:1037C000FFF76CFF10F0ACF90BF030F8034B1B78EF
:1037D0001BB9BDE8084010F011BF08BD64120020FD
:1037E00037B5FFF7D7FC4D4A136823F0E06343F089
:1037F000007313600FF0B6FB4FF4E1314848FCF75B
:10380000EDFE484B48481B6800F0E8F800F0F2F87D
:10381000FFF7CFFCC507044602D5444800F0DEF8A8
:10382000A00702D5424800F0D9F8610702D5414807
:1038300000F0D4F8220702D53F4800F0CFF8A306E5
:1038400002D53E4800F0CAF8FFF7B2FC3C4800F051
:10385000C5F820213248FFF760FE3A4800F0BEF874
:103860000A212F48FFF759FE00F0C4F8364800F04F
:10387000B5F8364800F0B2F8354800F0AFF800F07F
:10388000B9F8344800F0AAF800F0B4F80020FCF7CA
:10389000C1FD0DF10701091A2F4800F0C3F82F4CA4
:1038A0004FF4A8612E4800F0BDF80A211C48FFF72C
:1038B00034FE0AF0A5FC0AF00DFF05F009F82378A4
:1038C00023B90CF0DDFE08B101232370254C264DF1
:1038D0002168286815F08EF969682060606815F025
:1038E00089F9A9686060A06815F084F9A0600DF0FE
:1038F00093F81E480FF028FF0BF01CFC0CF0FAFEAA
:103900000EF0B8FF00F0F4F8FFF706FE01231A46A8
:103910001946184600F0B0FA03B030BD040001406B
:103920005C100020AC250020E1E20208FEC0020885
:1039300007C1020818C102082AC102083BC10208D7
:103940004CC1020853C1020861C1020871C10208DA
:103950007CC102089FC10208B6C1020855120020AE
:10396000C5C102084417002064170020B81F0020BA
:1039700008B512F079FE124B1B789B0613D512F096
:103980008BFA03F0AFFAFFF7E5FD0BF0ABFB0FF09E
:10399000CBFF002108460FF02DFD0022094B0A48FD
:1039A0001A7003F03BFB094B1B78032B01D803F083
:1039B000DFFD03F053FC0CF099FFFFF7FBFED8E7A7
:1039C000C4230020F4050020FAC00208441400209B
:1039D000014812F0B5B800BF5D12002010B50446D2
:1039E00014F9011B19B10248FFF797FDF8E710BD64
:1039F0005C1000200148FFF7F1BF00BF04C20208BD
:103A00000148FFF7EBBF00BFFDC1020810B50C462F
:103A1000FFF7E4FF2146BDE810400148FCF7AABECD
:103A20005C10002010B50C46FFF7D8FF2146BDE81A
:103A300010400A220148FCF703BF00BF5C100020C1
:103A400010B50C46FFF7CAFF2146BDE810400A2218
:103A50000148FCF708BF00BF5C10002013B50C46FE
:103A6000FFF7BCFF204614F035FD02230246009309
:103A700002480B46FCF7D0FF02B010BD5C100020DE
:103A800010B50C46FFF7AAFF2146BDE810400A22F8
:103A90000148FCF7FFBE00BF5C100020034A044B46
:103AA000002814BF10461846FFF798BFDFC602086B
:103AB000F2C50208034A044B002814BF10461846FA
:103AC000FFF78CBFF2C10208F7C1020810B5044627
:103AD000322C06D93220323CFFF740FB10F020F8A0
:103AE000F6E72046FFF73AFBBDE8104010F018B8A3
:103AF00010B5254CD4F804319BB107211020FFF7F5
:103B000073FAD4F87431EBB107211720FFF76CFA80
:103B1000D4F864313BB3BDE8104007211620FFF70D
:103B200063BA032294F80C11D4F80001FDF74AFAA5
:103B3000D4F8003194F80C111A684FF480338B409C
:103B40001361DEE7032294F87C11D4F87001FDF7CD
:103B500039FAD4F8703194F87C111A684FF4803334
:103B60008B401361D4E7032294F86C11D4F8600100
:103B7000FDF728FAD4F8603194F86C111A684FF404
:103B800080338B40136110BDE0BB020838B52B4C6D
:103B90000546D4F80431017833B31020FFF748FB11
:103BA000D4F874316978002B2CD01720FFF740FB34
:103BB000D4F86431A978002B32D01620FFF738FBF7
:103BC0002B786A781344AA781344022BCCBF0122C5
:103BD00000221B4B1A7006DD1A4B9D421FBF2A881C
:103BE0001A80AA789A7038BD012300290CBF1021D1
:103BF000002194F80C219340D4F800218B401268E6
:103C00001361CDE7012300290CBF1021002194F896
:103C10007C219340D4F870218B4012681361C7E770
:103C2000012300290CBF1021002194F86C2193403E
:103C3000D4F860218B4012681361C1E7E0BB020831
:103C40006A12002067120020FF22024B1A705A707D
:103C50009A707047671200202DE9F341D0F8008078
:103C60000E684046176815F093FA0546384615F079
:103C70008FFA31460446404615F080FA00BB3946BB
:103C8000304615F07BFAE8B9304615F081FAFF2688
:103C9000621B401BD31780FB060115F0BFFA0A4BCD
:103CA000C0B21A78824208D01870C0438DF806005E
:103CB00001A8ADF80460FFF769FF02B0BDE8F0812C
:103CC0002846E4E72046E2E76B1200202DE9F341A5
:103CD000D0F800800E684046176815F059FA05467E
:103CE000384615F055FA31460446404615F046FA76
:103CF00010BB3946304615F041FAF8B9304615F098
:103D000047FAFF26621B401BD31780FB060115F004
:103D100085FA0B4BC0B21A7882420AD01870002381
:103D20008DF8040001A88DF805308DF80660FFF7C6
:103D30002DFF02B0BDE8F0812846E2E72046E0E72B
:103D40006B12002010B50B6804461B6908469847A3
:103D50002379C0F3400210F01E0F60F3000362F3FA
:103D6000410314BF0122002262F382032060237109
:103D7000204610BD08B558210148FFF7CEFB08BD0D
:103D80005C10002008B559210148FFF7C6FB08BDAB
:103D90005C10002008B55A210148FFF7BEFB08BDA2
:103DA0005C10002008B545210148FFF7B6FB08BDAF
:103DB0005C100020F7B53C2400680D46B0FBF4F71A
:103DC0004FF46161B7FBF4F3B0FBF1F104FB137343
:103DD0008EB2A2B11821B6FBF1F2104C01FB1266B3
:103DE000B0FBF4F400932246B3B20D49284620F00C
:103DF00041FD0A2C34BF0820092003B0F0BD632E1A
:103E00008AB205D80749284620F034FD0520F4E79A
:103E10000549284620F02EFD0620EEE780510100DE
:103E2000DCC20208E0C20208EAC2020810B5044679
:103E30000C48FFF7D3FD102221680B48FCF734FD36
:103E400023799A0702D50948FFF7C8FD23795B0754
:103E500002D50748FFF7C2FDBDE810400548FFF74F
:103E600007BC00BF49C202085C10002064C20208FF
:103E700075C2020889C20208F8B50D4617461E46EB
:103E8000002800F095805248FFF7A8FDFFF772FF69
:103E90005048FFF7A3FD504814F02DF804460028C1
:103EA00000F084804D48FFF799FD012C7CD04C48F0
:103EB0004C4B022C18BF1846FFF790FD0A214A48C8
:103EC000FFF72BFB003418BF01240DB34048FFF768
:103ED00085FDFFF757FF3F48FFF780FD434814F08B
:103EE0000AF80546002867D03C48FFF777FD012D0A
:103EF00060D03B483B4B022D18BF1846FFF76EFDC4
:103F0000002D18BF01340A213748FFF706FBE4B241
:103F10000FB32F48FFF762FDFFF73CFF2D48FFF777
:103F20005DFD334813F0E7FF0546002848D02B48D5
:103F3000FFF754FD012D41D029482A4B022D18BF0F
:103F40001846FFF74BFD002D18BF01340A21264803
:103F5000FFF7E3FAE4B206B31D48FFF73FFDFFF7B2
:103F600021FF1C48FFF73AFD224813F0C4FF054625
:103F700050B31A48FFF732FD012D23D01848194BD2
:103F8000022D18BF1846FFF729FD002D18BF013478
:103F90000A211548FFF7C1FAE4B2BCB1BDE8F84008
:103FA000002115480AF0AAB9144885E70D4883E7AF
:103FB00004468AE71148A1E70A489FE70F48C0E78F
:103FC0000848BEE70D48DEE70648DCE7F8BD00BF5D
:103FD000A2C20208ABC20208581E0020BBC20208DF
:103FE0009EC2020896C202085C100020A01E00209B
:103FF000E81E0020101E0020C7C2020899C2020855
:1040000030B589B004460D46014602A8FFF79AFE76
:10401000029B013B03336FD8002D6DD09DF80C201F
:1040200094F84330900769D5013384F8433094F80D
:104030004330092B08D90A213548FFF76EFAFFF7FC
:1040400099FE02A8FFF7F2FE9DF80C30D90723D5A0
:1040500094F8423003BB0BF07FF82E4A0190904257
:1040600094BF0022012204A901A8FFF7A3FE0A21A0
:104070002748FFF752FA04A92548FCF77BFB26489E
:10408000FFF7ACFCFFF776FE2448B4F84010FFF7CA
:10409000C9FC2348FFF7A2FC9DF80C3013F0010F78
:1040A00094F842302ED0042B20D92046B4F840504A
:1040B00013F040FDA0B1642D12D9A5F1320189B2EF
:1040C000A4F84010204613F09FFEFFF753FEB4F80B
:1040D00040101448FFF7A6FC0A210D48FFF71DFA0F
:1040E0009DF80C2094F84230D2070BD5013384F8A8
:1040F0004230012384F8443009B030BD002B96D003
:10410000013B92E7002BF7D0002384F84230F3E71D
:104110005C10002080510100A2E202080AC20208DD
:104120002DC2020832C2020830B589B004460D46DD
:10413000014602A8FFF706FE029B013B03336FD83E
:10414000002D6DD09DF80C2094F84330900769D570
:10415000013384F8433094F84330092B08D90A21FD
:104160003548FFF7DAF9FFF70DFE02A8FFF75EFE0C
:104170009DF80C30D90723D594F8423003BB0AF0E0
:10418000EBFF2E4A0190904294BF0022012204A925
:1041900001A8FFF70FFE0A212748FFF7BEF904A97F
:1041A0002548FCF7E7FA2648FFF718FCFFF7EAFD79
:1041B0002448B4F84010FFF735FC2348FFF70EFC05
:1041C0009DF80C3013F0010F94F842302ED0042BE0
:1041D00020D92046B4F8405013F0ACFCA0B1642DB7
:1041E00012D9A5F1320189B2A4F84010204613F08B
:1041F0000BFEFFF7C7FDB4F840101448FFF712FCA0
:104200000A210D48FFF789F99DF80C2094F84230F7
:10421000D2070BD5013384F84230012384F84430AF
:1042200009B030BD002B96D0013B92E7002BF7D0B0
:10423000002384F84230F3E75C1000208051010035
:10424000A2E202080AC202082DC2020832C2020813
:1042500030B589B004460D46014602A8FFF772FD4D
:10426000029B013B03336FD8002D6DD09DF80C20CD
:1042700094F84330900769D5013384F8433094F8BB
:104280004330092B08D90A213548FFF746F9FFF7D3
:1042900081FD02A8FFF7CAFD9DF80C30D90723D590
:1042A00094F8423003BB0AF057FF2E4A0190904227
:1042B00094BF0022012204A901A8FFF77BFD0A2177
:1042C0002748FFF72AF904A92548FCF753FA26489E
:1042D000FFF784FBFFF75EFD2448B4F84010FFF7BA
:1042E000A1FB2348FFF77AFB9DF80C3013F0010F78
:1042F00094F842302ED0042B20D92046B4F84050F8
:1043000013F018FCA0B1642D12D9A5F1320189B2C5
:10431000A4F84010204613F077FDFFF73BFDB4F8FA
:1043200040101448FFF77EFB0A210D48FFF7F5F80F
:104330009DF80C2094F84230D2070BD5013384F855
:104340004230012384F8443009B030BD002B96D0B0
:10435000013B92E7002BF7D0002384F84230F3E7CB
:104360005C10002080510100A2E202080AC202088B
:104370002DC2020832C2020830B589B004460D468B
:10438000014602A8FFF7DEFC029B013B03336FD816
:10439000002D6DD09DF80C2094F84330900769D51E
:1043A000013384F8433094F84330092B08D90A21AB
:1043B0003548FFF7B2F8FFF7F5FC02A8FFF736FD26
:1043C0009DF80C30D90723D594F8423003BB0AF08E
:1043D000C3FE2E4A0190904294BF0022012204A9FC
:1043E00001A8FFF7E7FC0A212748FFF796F804A980
:1043F0002548FCF7BFF92648FFF7F0FAFFF7D2FC93
:104400002448B4F84010FFF70DFB2348FFF7E6FA05
:104410009DF80C3013F0010F94F842302ED0042B8D
:1044200020D92046B4F8405013F084FBA0B1642D8D
:1044300012D9A5F1320189B2A4F84010204613F038
:10444000E3FCFFF7AFFCB4F840101448FFF7EAFABA
:104450000A210D48FFF761F89DF80C2094F84230CE
:10446000D2070BD5013384F84230012384F844305D
:1044700009B030BD002B96D0013B92E7002BF7D05E
:10448000002384F84230F3E75C10002080510100E3
:10449000A2E202080AC202082DC2020832C20208C1
:1044A00008B50F490F4B0A681B689A1A002A16DBD9
:1044B00003F5FA730B60002201210B48FFF7A0FD02
:1044C000002201210948FFF72FFE002201210848A0
:1044D000FFF7BEFE002201210648FFF74DFF08BD91
:1044E00070120020AC250020581E0020A01E0020C5
:1044F000E81E0020101E00204138C3B2192B2DD811
:10450000174A1068D84010F0010028D0154AD25C34
:1045100012B3154B19688B188A56A2F13001C9B233
:10452000092906D92E2A08D15A78303A092A88BF93
:1045300000230E4A0120136070472D2A01D02B2A38
:104540000AD193F90110A1F13002D2B2092AF0D9AF
:104550002E2901D19A78E8E70023EAE70020704786
:10456000AC1200208E12002088120020B012002011
:1045700008B5FFF7C1FF20B1024B1868003018BF23
:10458000012008BDB0120020034B186818B10A22A0
:10459000002121F027BF7047B01200202DE9F74F0E
:1045A0004E4B05461B7803F00703072B70D00DF028
:1045B00027F90CF0D3FA01200CF0B8F85820FFF7D7
:1045C0009BFF04465920FFF797FF80465A20FFF7CC
:1045D00093FF81461DB9444504D1844202D1012490
:1045E000A046A1463E4E3F4FB24697E80F0086E8F0
:1045F0000F005220FFF7BCFF00286CD03A4B186820
:1046000050B30246934612F9016B36F020015ED09A
:10461000452E01D0652EF5D100218BF800101868C9
:1046200021F000FE05468BF800600021284614F0BA
:104630007DFD88B914B9B8F1000F17D0CAF8085039
:104640002946B86814F07CFD30B1002302A941F876
:10465000043D26480CF076FA14B100200CF006FC5C
:10466000B8F1000F02D001200CF000FCB9F1000FEE
:1046700002D002200CF0FAFB0CF0CEF90CF00EF890
:104680000CF080FA03221A4B1A700CF095F914E022
:104690004F20FFF76DFF98B1134B1B686BB1FFF70D
:1046A00073FF002883DBFFF76FFFFF2805DCFFF7B0
:1046B0006BFF10F0FF0F3FF47AAF03B0BDE8F08F4F
:1046C0004F20FFF719FF00283FF471AFF5E721F005
:1046D000A9FD0546A9E7074DACE700BF3617002046
:1046E0005417002044170020B01200205C1700204F
:1046F000100600200000A04038B50D4B1868A8B186
:104700000246154612F9014B34F020010AD0452C1F
:1047100001D0652CF5D100212970186821F082FDA7
:104720002C7038BDBDE8384021F07CBD0020F8E792
:10473000B012002070B501F0C3F8051E26DB44203E
:10474000FFF7DAFED8B1FFF7D7FF002106464FF09A
:10475000010414F0EBFC08B14FF000040C4B0021F5
:104760001C70304614F0E2FC48B9FFF7C5FF002189
:10477000044614F0DBFC074B28B943F82540BDE89C
:1047800070400CF091BF044A1A60F8E770BD00BF9A
:104790008D120020EC1C00200000E03F10B501F05D
:1047A0008FF8002813DB0024094B1857FFF7A4FEED
:1047B00030B1FFF7A1FF14F011FD064B43F82400C0
:1047C0000134042CF0D1BDE810400DF011BE10BD35
:1047D000F2C20208481D002010B501F071F800284F
:1047E0000EDB0024074B1857FFF786FE28B1FFF7B2
:1047F00083FF054B03EB840358620134042CF1D191
:1048000010BD00BFF2C20208481D002008B5214BB0
:10481000214A1B681A423CD04220FFF76DFE40B18E
:104820001E4B186818B10A22002121F097FE1C4B7C
:1048300018615320FFF760FE18B1FFF75DFF184BBA
:1048400018645420FFF758FE18B1FFF755FF144BBA
:1048500058645820FFF750FE18B1FFF74DFF114B79
:1048600018605920FFF748FE18B1FFF745FF0D4BC0
:1048700058605A20FFF740FE18B1FFF73DFF094B83
:1048800098604520FFF738FE18B1FFF735FF054B5C
:10489000D86008BDAC12002012008C03B0120020BA
:1048A000481D0020281D002010B51D4B1B6813F467
:1048B000682F12D11B4C1C48616BFFF7CFF8A16B1E
:1048C0001A48FFF7CBF8E16B1948FFF7C7F8BDE8C6
:1048D00010400A211748FBF72DBE5320FFF748FE72
:1048E00020B1FFF709FF0F4B5863D8635020FFF743
:1048F0003FFE18B1FFF700FF0A4B58635220FFF745
:1049000037FE18B1FFF7F8FE064B98635420FFF707
:104910002FFE18B1FFF7F0FE024BD86310BD00BFA9
:10492000AC120020481D0020F6C2020806C302088F
:1049300009C302085C10002008B5194B1B685B0313
:1049400004D5184B9A7C184B0AB91A6008BD174950
:10495000096888188A56A2F13001C9B2092905D917
:104960002E2A0BD14278303A092A0BD80A2200218C
:10497000186021F037FD0E4B1880E7E72D2A03D091
:104980002B2A01D00022E0E790F90110A1F13002BA
:10499000D2B2092AEAD92E29F4D18278E3E700BFFE
:1049A000AC1200208E120020B012002088120020CD
:1049B0001806002038B500F083FF041E47DB2D4B9E
:1049C0002D4D1B6813F4802F04D02C4B9A7C2C4B5C
:1049D000CAB91A60FFF70EF845212A48FEF79DFD77
:1049E00004F130012748FEF798FD35F914102648E8
:1049F000FFF718F825212348FEF78FFD0A212148EB
:104A0000FEF78BFD23E02149096888188A56A2F138
:104A10003001C9B2092905D92E2A19D14278303A74
:104A2000092A19D80A220021186021F0DBFC00B203
:104A300025F8140014F092F9154914F0E3F9154B18
:104A400053F8241014F0DEF9134B43F8240038BD5A
:104A50002D2A03D02B2A01D00022BAE790F90110A9
:104A6000A1F13002D2B2092ADCD92E29F4D1827800
:104A7000D5E700BFAC120020440600208E120020B3
:104A8000B01200205C1000200CC302088812002025
:104A90000AD7233C081D00204806002010B54520F9
:104AA000FFF72AFD002837D15020FFF725FD264CBF
:104AB00010B1FFF721FEE0604920FFF71DFD28B18E
:104AC000FFF71AFE214914F09DF920614420FFF7F9
:104AD00013FD28B1FFF710FE1C4914F047FA60617E
:104AE000FEF788FFE1681A48FEF7B8FF206917490A
:104AF00014F03CFA01461748FEF7B0FF606913490D
:104B000014F080F901461448FEF7A8FFBDE81040F4
:104B10000A211248FBF70EBD114B1B68002BC3D0B6
:104B2000FFF732FD0028BFDBFFF72EFDFF2804DC76
:104B3000FFF72AFD10F0FF0FB6D0FEF761FFBDE8CA
:104B400010400848FEF74ABF301F00200AD7233E16
:104B500014C3020818C302081CC302085C1000201A
:104B6000B012002020C3020870B55320FFF7C4FC28
:104B70000546F0B12F4B186800283AD00246164679
:104B800012F9014B34F0200130D0452C01D0652CB6
:104B9000F5D100213170186821F044FB347014F015
:104BA000F7FA254B00B21880B0FA80F0234B400989
:104BB00018705020FFF7A0FC0446F0B11E4BB3F96B
:104BC000003083B11B4B1B686BB1FFF7DDFC002885
:104BD00011DBFFF7D9FCFF2805DCFFF7D5FCC0B2DD
:104BE000041C18BF0124154B1C7070BD21F01AFB6A
:104BF000D5E70020D3E70024F5E7002DF5D1FEF737
:104C0000F9FE0F48FEF7EAFE0C4B0E4A18780E4BE1
:104C1000002814BF10461846FEF7E0FE064B0B486E
:104C2000B3F90010FEF7FEFEBDE870400848FEF73D
:104C3000D5BE00BFB01200205A060020601F002021
:104C400036C302083AD9020832C3020849C302082F
:104C50005AC3020810B5C0B1FEF7CCFE0D4C0E4889
:104C60006169FEF7FBFEA1690C48FEF7F7FEE169FA
:104C70000B48FEF7F3FE216A0A48FEF7EFFEBDE897
:104C800010400A210848FBF755BC20210648FBF7D5
:104C900051FCE3E7481D00205EC30208FAD9020870
:104CA00001DA0208FFDE02085C1000202DE9F04165
:104CB00000F006FE011E4ADB264B274A1B681A42FB
:104CC00004D1BDE8F0410120FFF7C4BF0025234B0C
:104CD0005857FFF711FC68B3214B1B6853B3032DE2
:104CE000204C2ED1FFF708FD1F49074614F028FA83
:104CF000F8B13946206A14F039F9DFF870800646B9
:104D00000146D8F80C0014F07DF83146C8F80C00C4
:104D1000206B14F077F8DFF858802063D8F80C0087
:104D200014F018F8314614F06DF814F057FAC8F87A
:104D30000C0027620135042DC9D1BDE8F0410DF00A
:104D40007BBBFFF7D9FC04EB85046061F2E7BDE8AB
:104D5000F08100BFAC1200201000800365C3020880
:104D6000B0120020481D00200000A041281D002096
:104D7000181D00200023024A1370024A1370704766
:104D800065120020F40500200020FEF771BCFEF73C
:104D9000E1BB000070B55320FFF7AEFB204D28B1FA
:104DA0005320FFF7A9FB20BB00202870FEF722FE4E
:104DB0001C48FEF713FE2B786BB3002423462A7899
:104DC000E240D2070CD55E1CF6B21BB12C2116486E
:104DD000FBF7B0FB154B53F82400FEF7FFFD3346FD
:104DE0000134052CEBD1BDE870400A210E48FBF7D9
:104DF000A1BB0F4B1B68002BD6D0FFF7C5FB0028CB
:104E0000D2DBFFF7C1FBFF2803DCFFF7BDFBC0B21D
:104E1000CBE7FF20C9E70748FEF7E0FDE3E700BF67
:104E20006612002069C302085C1000209CC30208BF
:104E3000B012002070C3020801200BF051BC00200A
:104E40000BF04EBC08B50021034809F057FABDE845
:104E50000840FEF78BBB00BFB0C3020838B5532033
:104E6000FFF74AFBF0B13A4B1868D8B10246154635
:104E700012F9014B34F0200111D0452C01D0652CE2
:104E8000F5D100212970186821F0CCF92C70314936
:104E900013F0B8FF14F0A2F92F4B186038BD21F0C1
:104EA000C1F9F4E75820FFF727FB78B95920FFF73D
:104EB00023FB58B95A20FFF71FFB38B94520FFF7ED
:104EC0001BFB18B9BDE838400CF074BC0CF098FC22
:104ED0005820FFF711FB68B1204BD3F8802093F8DE
:104EE0008C10012312688B4013611D4A137823F044
:104EF000010313705920FFF7FFFA68B1174BD3F87D
:104F0000102193F81C11012312688B401361144A7D
:104F1000137823F0020313705A20FFF7EDFA68B1FB
:104F20000E4BD3F8202293F82C12012312688B40E9
:104F300013610B4A137823F0040313704520FFF725
:104F4000DBFA0028AAD0BDE83840FEF737BB00BF27
:104F5000B012002000007A44F0050020E0BB0208F7
:104F60003717002038B5FEF745FD4248FEF736FDFD
:104F7000414B424C1B6813F4802F1CD0404B997C52
:104F8000404B11B91960012014E03F4A10684218E3
:104F90004156A1F13000C0B2092805D92E294BD1C4
:104FA0005178303909294BD81A60FFF7EDFA0028FB
:104FB00054DA00202070354D2078354CFEF76EFD18
:104FC0003448FEF70BFD2968206813F013FE0146F4
:104FD0003148FEF743FD6968A06813F00BFE0146F7
:104FE0002E48FEF73BFDA968206913F003FE014639
:104FF0002B48FEF733FD2B48FEF7F0FC296860686C
:1050000013F0F8FD01462448FEF728FD6968E068C2
:1050100013F0F0FD01462148FEF720FDA968606904
:1050200013F0E8FD01461E48FEF718FDBDE83840C4
:105030000A211D48FBF77EBA2D2904D02B2902D066
:1050400000221A609FE792F90100A0F13001C9B275
:105050000929A9D92E28F3D19178A2E7FFF794FA6C
:10506000FF2890DCFFF790FAC0B2003018BF012093
:10507000A0E700BFB9C30208AC120020340600202C
:105080008E120020B012002088120020801700200D
:105090001C060020C9C302089EDD0208FAD90208D6
:1050A00001DA0208D1C302085C10002010B50C46DA
:1050B000FFF722FA38B1054B186820B10A22002107
:1050C00021F090F904B2204610BD00BFB0120020BC
:1050D00038B55020FFF710FA90B300215020FFF7A9
:1050E000E5FF4FF0FF3105465320FFF7DFFF431C7C
:1050F000022B044624D868B2002821DBFEF712FAFE
:1051000018B1BDE83840FEF71BBAEDB20CF078FBE1
:1051100002212846FDF768FF621C0AD0631E5C422C
:105120005C412846FDF7D6FFA04209D0FEF742FBBE
:10513000F7E72846FDF7CEFFB0FA80F46409F0E700
:1051400038BD0CF05DBB08B5FFF71EFA002807DB81
:10515000FFF71AFAFF2805DCFFF716FAC0B208BD00
:105160000020FCE7FF20FAE770B55320FFF700FAB4
:10517000A0B3FFF7E8FF05465020FFF7F9F968B341
:10518000FFF702FA0304044628D446B24920FFF789
:10519000EFF968B1124B1B687BB1FFF7D4FF60B920
:1051A0003046FEF7BFF940B1BDE87040FEF7C8B920
:1051B0004920FFF7A1F90028F2D0E4B200212046EF
:1051C000FDF712FF29462046FDF798FF2946304695
:1051D000FEF72EF8282E04BF024B1D7070BD00BFD5
:1051E000B0120020841F002008B50EF09DFB09F0CE
:1051F00079FF0CF0DFFA002108460EF0FBF84FF4BF
:105200007A70FEF763FCBDE808400021014809F010
:1052100075B800BFD9C3020838B5244B1B685B03BF
:105220000CD5234B9A7C234B4AB900201A602249A3
:1052300013F0E8FD13F0D2FF204B186038BD204971
:10524000096888188A56A2F13001C9B2092905D91E
:105250002E2A16D14278303A092A16D8024618600A
:10526000154612F9014B34F020011BD0452C01D01A
:10527000652CF5D100212970186820F0D3FF2C701F
:10528000D5E72D2A03D02B2A01D00022CDE790F9B3
:105290000110A1F13002D2B2092ADFD92E29F4D1AE
:1052A0008278D8E720F0BEFFC1E700BFAC12002033
:1052B0008E120020B012002000007A4460120020FC
:1052C00088120020012208B5114B53201A700022C9
:1052D000104B1A70FFF710F9A0B10F4B1B688BB180
:1052E000FFF752F9002803DABDE8084001F0FEBFDD
:1052F000FFF74AF9FF2804DCFFF746F910F0FF0F2B
:10530000F2D008BD5320FFF7F7F80028ECD0F8E7FB
:10531000ED050020AB160020B012002000210FF098
:105320006FBB09F099BF0BF0ABB90AF039BA0000B6
:1053300010B55320FFF7E0F80446A8B10E4B1B68E8
:1053400093B1FFF721F9002813DBFFF71DF9FF28C0
:1053500005DCFFF719F9C0B2041C18BF0124204670
:10536000BDE810400AF0B2BA5320FFF7C5F8012497
:10537000F5E70024F3E700BFB012002008B50BF0FA
:1053800073F930B1FEF736FBBDE808400148FEF77F
:1053900025BB08BDE9C3020837B55220FFF7ACF8BA
:1053A00020B1154B1B6803B3FFF7CDFE0546552012
:1053B000FFF7A2F820B1104B1B68C3B1FFF7C3FE83
:1053C00004464220FFF798F820B10B4B1B6883B1CD
:1053D000FFF7B9FE8DF8060001A88DF804508DF88E
:1053E0000540FEF7D3FB03B030BDFF25DFE7FF2408
:1053F000E7E7FF20EEE700BFB012002037B500243A
:1054000001250194114B1857FFF776F818B10122C6
:10541000002501ABE2540134042CF3D145B1012342
:105420008DF804308DF805308DF806308DF8073092
:105430009DF807309DF806209DF805109DF80400A2
:1054400003B0BDE83040FEF717BD00BFF4C302084B
:105450002DE9F0415320FFF74FF8054600283CD0D6
:10546000474E326822B1FFF76EFE051C18BF0125BA
:1054700000F026FA80464920FFF73EF818B134685C
:1054800014B1FFF760FE044600263E4BF7B2985772
:10549000FFF732F870B1022F15D0032F17D0012F6C
:1054A0000DD03CB9384885F0010180F84550C9B2AB
:1054B00012F028FA0136042EE7D1BDE8F081002C65
:1054C000F8D13248EFE7002CF4D13148EBE7B8F1DE
:1054D000000FF2DBEED12F48E5E758212E48FEF70A
:1054E0001CF82E48FEF77AFA274812F016FA2C4DCF
:1054F0002C4C00280CBF28462046FEF76FFA0A21E4
:105500002548FEF70AF859212348FEF706F82348F4
:10551000FEF764FA1D4812F000FA00280CBF284676
:105520002046FEF75BFA0A211B48FDF7F6FF5A21D9
:105530001948FDF7F2FF1948FEF750FA144812F027
:10554000ECF900280CBF28462046FEF747FA0A214E
:105550001148FDF7E2FF45210F48FDF7DEFF0F4838
:10556000FEF73CFA0B4812F0D8F900280CBF284689
:105570002046FEF733FA0A210748FDF7CEFF9CE7E5
:10558000B0120020F8C30208581E0020A01E002000
:10559000E81E0020101E00205C10002014C4020829
:1055A000FCC3020808C402082DE9F0414920FEF7B7
:1055B000DFFF00BB0026002701253F4B5FFA87F87D
:1055C000D857FEF7D5FF10B1FEF7DEFF00B284B268
:1055D00094B3B8F1020F20D0B8F1030F21D0B8F185
:1055E000010F16D02EB93548A0F84040214612F0E0
:1055F0000BFC002520E0FEF7C7FF0028DADBFEF7F2
:10560000C3FFFF2803DCFEF7BFFFC6B2D3E7FF26C8
:10561000D1E7002EEDD12A48E6E7002EE9D129484E
:10562000E2E700F04DF9051E43DBE2D126482146B2
:10563000A0F8404012F0E8FB0137042FBDD1002D47
:1056400037D058212148FDF768FF1C4B2048B3F89C
:105650004010FEF7E7F90A211C48FDF75EFF5921CB
:105660001A48FDF75AFF164B1948B3F84010FEF7D9
:10567000D9F90A211548FDF750FF5A211348FDF7C3
:105680004CFF104B1248B3F84010FEF7CBF90A213B
:105690000E48FDF742FF45210C48FDF73EFF0A4B3F
:1056A0000B48B3F84010FEF7BDF90A210748FDF793
:1056B00034FFBDE8F08100BF23C40208581E00205B
:1056C000A01E0020E81E0020101E00205C100020FC
:1056D00027C4020810B50C46FEF70EFF68B10A4B4E
:1056E0001B6853B1FEF750FF002808DBFEF74CFFA4
:1056F000FF2806DCFEF748FFC4B2204610BD002498
:10570000FBE7FF24F9E700BFB012002038B5214CB9
:10571000214D58212046FDF700FF2846FEF75EF98F
:105720001E4B93F84400FEF7C5F90A212046FDF709
:10573000F4FE59212046FDF7F0FE2846FEF74EF90B
:10574000174B93F84400FEF7B5F90A212046FDF700
:10575000E4FE5A212046FDF7E0FE2846FEF73EF91A
:10576000104B93F84400FEF7A5F90A212046FDF7F7
:10577000D4FE45212046FDF7D0FE2846FEF72EF93F
:10578000094B93F84400FEF795F90A212046FDF7EE
:10579000C4FE38BD5C10002039C40208581E002029
:1057A000A01E0020E81E0020101E00202DE9F04160
:1057B0005820FEF7A1FE80465920FEF79DFE0746C1
:1057C0005A20FEF799FE06464520FEF795FE05464F
:1057D000B8F1000F61D1002F5FD1002E5FD180F0B2
:1057E0000104E4B2FF215820FFF774FF3CB940B236
:1057F000012804D0B8F1000F0CD000280ADA0022EA
:10580000294B582183F844202848FDF786FE284874
:10581000FEF7E4F8FF215920FFF75CFF2CB940B2F6
:10582000012802D067B100280ADA0022214B592151
:1058300083F844201D48FDF770FE1D48FEF7CEF8A2
:10584000FF215A20FFF746FF2CB940B2012802D0B1
:1058500066B100280ADA0022174B5A2183F8442047
:105860001248FDF75AFE1248FEF7B8F8FF2145200E
:10587000FFF730FF24B940B210B195B1002810DA1B
:1058800000220E4B452183F844200848FDF745FED1
:10589000BDE8F0410648FEF7A1B80024A2E73C4667
:1058A000A0E7BDE8F08100BF581E00205C1000207A
:1058B0005AC40208A01E0020E81E0020101E00206E
:1058C00010B55420FEF754FE48B3FEF75DFE0028E5
:1058D00021DBFEF759FEFF281FDCFEF755FEC0B2A4
:1058E00044B2002C15DDFEF785F84D210D48FDF77B
:1058F00014FE0D4B0A2219680A48FAF7A1FF214647
:105900000A48FEF78FF80A210648FDF706FE4FF019
:10591000FF34204610BD0020E2E7FF20E0E7044608
:10592000F7E700BF5C100020A8120020B6C40208F0
:1059300070B500241C4BA5001857FEF719FE1B4E2E
:1059400058B3FEF7D9FE1A4A0346A25C12B9194AA7
:105950001278DAB1184A1846515913F04BF9034638
:1059600073510134042CE5D14620FEF701FE60B1ED
:10597000FEF7C2FE002113F001FC30B1FEF7BCFEC1
:105980000E4913F0F3FA0E4B186070BD032CE7D0EC
:105990000C4B595913F02CF9E1E7074B53F824301D
:1059A00046F82430DDE700BF71C402085417002018
:1059B0007C1200207C170020441700200000704259
:1059C000140600208017002038B5054C25680544D2
:1059D00023685B1B002B02DAFDF7ECFEF8E738BD0D
:1059E000AC250020012170B5D14BD24C93F9003089
:1059F00094F900504D2B064621703BD0542B00F0FB
:105A00003A82472B17D1CC4B1868042824D00BDCE2
:105A1000002810DB884219DC00F028FE002E40F040
:105A2000A08001F003FC9CE05A281CD007DC15285C
:105A3000F4D01C2813D0C14801F036FAEEE75B28F9
:105A400015D05C28F7D100F07DFAE7E7831E5842B5
:105A5000584100F0EBFFE1E701F0D0F8DEE700206D
:105A6000FEF79CFDDAE70022B54B1A70D6E7B44B7F
:105A70001970D3E7B04B1B68752B00F0B48100F3AD
:105A800092804C2B00F0858140DC192B00F0668160
:105A90001EDC142B00F056810DDC112B00F045812B
:105AA00004DC012BC7D800F0D1FCB7E7122BC2D120
:105AB000FFF7D4F9B2E7162B00F04A81C0F2458116
:105AC000172B00F04881182BB5D101F07DFDA5E71B
:105AD0001E2B00F04F810CDC1B2B00F04581C0F227
